{
  "_format": "hh-sol-artifact-1",
  "contractName": "CrowdFunding",
  "sourceName": "contracts/CrowdFunding.sol",
  "abi": [
    {
      "inputs": [
        {
          "internalType": "uint256",
          "name": "",
          "type": "uint256"
        }
      ],
      "name": "campaigns",
      "outputs": [
        {
          "internalType": "address",
          "name": "owner",
          "type": "address"
        },
        {
          "internalType": "string",
          "name": "title",
          "type": "string"
        },
        {
          "internalType": "string",
          "name": "description",
          "type": "string"
        },
        {
          "internalType": "uint256",
          "name": "target",
          "type": "uint256"
        },
        {
          "internalType": "uint256",
          "name": "deadline",
          "type": "uint256"
        },
        {
          "internalType": "uint256",
          "name": "amountCollected",
          "type": "uint256"
        }
      ],
      "stateMutability": "view",
      "type": "function"
    },
    {
      "inputs": [
        {
          "internalType": "address",
          "name": "_owner",
          "type": "address"
        },
        {
          "internalType": "string",
          "name": "_title",
          "type": "string"
        },
        {
          "internalType": "string",
          "name": "_description",
          "type": "string"
        },
        {
          "internalType": "uint256",
          "name": "_target",
          "type": "uint256"
        },
        {
          "internalType": "uint256",
          "name": "_deadline",
          "type": "uint256"
        }
      ],
      "name": "createCampaign",
      "outputs": [
        {
          "internalType": "uint256",
          "name": "",
          "type": "uint256"
        }
      ],
      "stateMutability": "nonpayable",
      "type": "function"
    },
    {
      "inputs": [
        {
          "internalType": "uint256",
          "name": "_id",
          "type": "uint256"
        }
      ],
      "name": "donateToCampaign",
      "outputs": [],
      "stateMutability": "payable",
      "type": "function"
    },
    {
      "inputs": [],
      "name": "getCampaigns",
      "outputs": [
        {
          "components": [
            {
              "internalType": "address",
              "name": "owner",
              "type": "address"
            },
            {
              "internalType": "string",
              "name": "title",
              "type": "string"
            },
            {
              "internalType": "string",
              "name": "description",
              "type": "string"
            },
            {
              "internalType": "uint256",
              "name": "target",
              "type": "uint256"
            },
            {
              "internalType": "uint256",
              "name": "deadline",
              "type": "uint256"
            },
            {
              "internalType": "uint256",
              "name": "amountCollected",
              "type": "uint256"
            },
            {
              "internalType": "address[]",
              "name": "donators",
              "type": "address[]"
            },
            {
              "internalType": "uint256[]",
              "name": "donations",
              "type": "uint256[]"
            }
          ],
          "internalType": "struct CrowdFunding.Campaign[]",
          "name": "",
          "type": "tuple[]"
        }
      ],
      "stateMutability": "view",
      "type": "function"
    },
    {
      "inputs": [
        {
          "internalType": "uint256",
          "name": "_id",
          "type": "uint256"
        }
      ],
      "name": "getDonators",
      "outputs": [
        {
          "internalType": "address[]",
          "name": "",
          "type": "address[]"
        },
        {
          "internalType": "uint256[]",
          "name": "",
          "type": "uint256[]"
        }
      ],
      "stateMutability": "view",
      "type": "function"
    },
    {
      "inputs": [],
      "name": "numberOffCampaingns",
      "outputs": [
        {
          "internalType": "uint256",
          "name": "",
          "type": "uint256"
        }
      ],
      "stateMutability": "view",
      "type": "function"
    }
  ],
  "bytecode": "0x6080604052600060015534801561001557600080fd5b5061173e806100256000396000f3fe6080604052600436106100555760003560e01c8063075843c31461005a5780630fa91fa914610097578063141961bc146100d557806342a4fda814610117578063a6b0363314610133578063ad6640cf1461015e575b600080fd5b34801561006657600080fd5b50610081600480360381019061007c9190610bed565b610189565b60405161008e9190610caf565b60405180910390f35b3480156100a357600080fd5b506100be60048036038101906100b99190610cca565b61029d565b6040516100cc929190610e73565b60405180910390f35b3480156100e157600080fd5b506100fc60048036038101906100f79190610cca565b6103ad565b60405161010e96959493929190610f38565b60405180910390f35b610131600480360381019061012c9190610cca565b610519565b005b34801561013f57600080fd5b5061014861065a565b6040516101559190611256565b60405180910390f35b34801561016a57600080fd5b5061017361099e565b6040516101809190610caf565b60405180910390f35b60008060008060015481526020019081526020016000209050428160040154106101e8576040517f08c379a00000000000000000000000000000000000000000000000000000000081526004016101df906112ea565b60405180910390fd5b868160000160006101000a81548173ffffffffffffffffffffffffffffffffffffffff021916908373ffffffffffffffffffffffffffffffffffffffff1602179055508581600101908161023c9190611516565b508481600201908161024e9190611516565b50838160030181905550828160040181905550600081600501819055506001600081548092919061027e90611617565b919050555060018054610291919061165f565b91505095945050505050565b6060806000808481526020019081526020016000206006016000808581526020019081526020016000206007018180548060200260200160405190810160405280929190818152602001828054801561034b57602002820191906000526020600020905b8160009054906101000a900473ffffffffffffffffffffffffffffffffffffffff1673ffffffffffffffffffffffffffffffffffffffff1681526020019060010190808311610301575b505050505091508080548060200260200160405190810160405280929190818152602001828054801561039d57602002820191906000526020600020905b815481526020019060010190808311610389575b5050505050905091509150915091565b60006020528060005260406000206000915090508060000160009054906101000a900473ffffffffffffffffffffffffffffffffffffffff16908060010180546103f690611339565b80601f016020809104026020016040519081016040528092919081815260200182805461042290611339565b801561046f5780601f106104445761010080835404028352916020019161046f565b820191906000526020600020905b81548152906001019060200180831161045257829003601f168201915b50505050509080600201805461048490611339565b80601f01602080910402602001604051908101604052809291908181526020018280546104b090611339565b80156104fd5780601f106104d2576101008083540402835291602001916104fd565b820191906000526020600020905b8154815290600101906020018083116104e057829003601f168201915b5050505050908060030154908060040154908060050154905086565b60003490506000806000848152602001908152602001600020905080600601339080600181540180825580915050600190039060005260206000200160009091909190916101000a81548173ffffffffffffffffffffffffffffffffffffffff021916908373ffffffffffffffffffffffffffffffffffffffff1602179055508060070182908060018154018082558091505060019003906000526020600020016000909190919091505560008160000160009054906101000a900473ffffffffffffffffffffffffffffffffffffffff1673ffffffffffffffffffffffffffffffffffffffff168360405161060e906116c4565b60006040518083038185875af1925050503d806000811461064b576040519150601f19603f3d011682016040523d82523d6000602084013e610650565b606091505b5050905050505050565b6060600060015467ffffffffffffffff81111561067a57610679610a8c565b5b6040519080825280602002602001820160405280156106b357816020015b6106a06109a4565b8152602001906001900390816106985790505b50905060005b600154811015610996576000806000838152602001908152602001600020905080604051806101000160405290816000820160009054906101000a900473ffffffffffffffffffffffffffffffffffffffff1673ffffffffffffffffffffffffffffffffffffffff1673ffffffffffffffffffffffffffffffffffffffff16815260200160018201805461074c90611339565b80601f016020809104026020016040519081016040528092919081815260200182805461077890611339565b80156107c55780601f1061079a576101008083540402835291602001916107c5565b820191906000526020600020905b8154815290600101906020018083116107a857829003601f168201915b505050505081526020016002820180546107de90611339565b80601f016020809104026020016040519081016040528092919081815260200182805461080a90611339565b80156108575780601f1061082c57610100808354040283529160200191610857565b820191906000526020600020905b81548152906001019060200180831161083a57829003601f168201915b505050505081526020016003820154815260200160048201548152602001600582015481526020016006820180548060200260200160405190810160405280929190818152602001828054801561090357602002820191906000526020600020905b8160009054906101000a900473ffffffffffffffffffffffffffffffffffffffff1673ffffffffffffffffffffffffffffffffffffffff16815260200190600101908083116108b9575b505050505081526020016007820180548060200260200160405190810160405280929190818152602001828054801561095b57602002820191906000526020600020905b815481526020019060010190808311610947575b505050505081525050838381518110610977576109766116d9565b5b602002602001018190525050808061098e90611617565b9150506106b9565b508091505090565b60015481565b604051806101000160405280600073ffffffffffffffffffffffffffffffffffffffff168152602001606081526020016060815260200160008152602001600081526020016000815260200160608152602001606081525090565b6000604051905090565b600080fd5b600080fd5b600073ffffffffffffffffffffffffffffffffffffffff82169050919050565b6000610a3e82610a13565b9050919050565b610a4e81610a33565b8114610a5957600080fd5b50565b600081359050610a6b81610a45565b92915050565b600080fd5b600080fd5b6000601f19601f8301169050919050565b7f4e487b7100000000000000000000000000000000000000000000000000000000600052604160045260246000fd5b610ac482610a7b565b810181811067ffffffffffffffff82111715610ae357610ae2610a8c565b5b80604052505050565b6000610af66109ff565b9050610b028282610abb565b919050565b600067ffffffffffffffff821115610b2257610b21610a8c565b5b610b2b82610a7b565b9050602081019050919050565b82818337600083830152505050565b6000610b5a610b5584610b07565b610aec565b905082815260208101848484011115610b7657610b75610a76565b5b610b81848285610b38565b509392505050565b600082601f830112610b9e57610b9d610a71565b5b8135610bae848260208601610b47565b91505092915050565b6000819050919050565b610bca81610bb7565b8114610bd557600080fd5b50565b600081359050610be781610bc1565b92915050565b600080600080600060a08688031215610c0957610c08610a09565b5b6000610c1788828901610a5c565b955050602086013567ffffffffffffffff811115610c3857610c37610a0e565b5b610c4488828901610b89565b945050604086013567ffffffffffffffff811115610c6557610c64610a0e565b5b610c7188828901610b89565b9350506060610c8288828901610bd8565b9250506080610c9388828901610bd8565b9150509295509295909350565b610ca981610bb7565b82525050565b6000602082019050610cc46000830184610ca0565b92915050565b600060208284031215610ce057610cdf610a09565b5b6000610cee84828501610bd8565b91505092915050565b600081519050919050565b600082825260208201905092915050565b6000819050602082019050919050565b610d2c81610a33565b82525050565b6000610d3e8383610d23565b60208301905092915050565b6000602082019050919050565b6000610d6282610cf7565b610d6c8185610d02565b9350610d7783610d13565b8060005b83811015610da8578151610d8f8882610d32565b9750610d9a83610d4a565b925050600181019050610d7b565b5085935050505092915050565b600081519050919050565b600082825260208201905092915050565b6000819050602082019050919050565b610dea81610bb7565b82525050565b6000610dfc8383610de1565b60208301905092915050565b6000602082019050919050565b6000610e2082610db5565b610e2a8185610dc0565b9350610e3583610dd1565b8060005b83811015610e66578151610e4d8882610df0565b9750610e5883610e08565b925050600181019050610e39565b5085935050505092915050565b60006040820190508181036000830152610e8d8185610d57565b90508181036020830152610ea18184610e15565b90509392505050565b610eb381610a33565b82525050565b600081519050919050565b600082825260208201905092915050565b60005b83811015610ef3578082015181840152602081019050610ed8565b60008484015250505050565b6000610f0a82610eb9565b610f148185610ec4565b9350610f24818560208601610ed5565b610f2d81610a7b565b840191505092915050565b600060c082019050610f4d6000830189610eaa565b8181036020830152610f5f8188610eff565b90508181036040830152610f738187610eff565b9050610f826060830186610ca0565b610f8f6080830185610ca0565b610f9c60a0830184610ca0565b979650505050505050565b600081519050919050565b600082825260208201905092915050565b6000819050602082019050919050565b600082825260208201905092915050565b6000610fef82610eb9565b610ff98185610fd3565b9350611009818560208601610ed5565b61101281610a7b565b840191505092915050565b600082825260208201905092915050565b600061103982610cf7565b611043818561101d565b935061104e83610d13565b8060005b8381101561107f5781516110668882610d32565b975061107183610d4a565b925050600181019050611052565b5085935050505092915050565b600082825260208201905092915050565b60006110a882610db5565b6110b2818561108c565b93506110bd83610dd1565b8060005b838110156110ee5781516110d58882610df0565b97506110e083610e08565b9250506001810190506110c1565b5085935050505092915050565b6000610100830160008301516111146000860182610d23565b506020830151848203602086015261112c8282610fe4565b915050604083015184820360408601526111468282610fe4565b915050606083015161115b6060860182610de1565b50608083015161116e6080860182610de1565b5060a083015161118160a0860182610de1565b5060c083015184820360c0860152611199828261102e565b91505060e083015184820360e08601526111b3828261109d565b9150508091505092915050565b60006111cc83836110fb565b905092915050565b6000602082019050919050565b60006111ec82610fa7565b6111f68185610fb2565b93508360208202850161120885610fc3565b8060005b85811015611244578484038952815161122585826111c0565b9450611230836111d4565b925060208a0199505060018101905061120c565b50829750879550505050505092915050565b6000602082019050818103600083015261127081846111e1565b905092915050565b7f54686520646561646c696e652073686f756c642062652061206461746520696e60008201527f2074686520667574757265000000000000000000000000000000000000000000602082015250565b60006112d4602b83610ec4565b91506112df82611278565b604082019050919050565b60006020820190508181036000830152611303816112c7565b9050919050565b7f4e487b7100000000000000000000000000000000000000000000000000000000600052602260045260246000fd5b6000600282049050600182168061135157607f821691505b6020821081036113645761136361130a565b5b50919050565b60008190508160005260206000209050919050565b60006020601f8301049050919050565b600082821b905092915050565b6000600883026113cc7fffffffffffffffffffffffffffffffffffffffffffffffffffffffffffffffff8261138f565b6113d6868361138f565b95508019841693508086168417925050509392505050565b6000819050919050565b600061141361140e61140984610bb7565b6113ee565b610bb7565b9050919050565b6000819050919050565b61142d836113f8565b6114416114398261141a565b84845461139c565b825550505050565b600090565b611456611449565b611461818484611424565b505050565b5b818110156114855761147a60008261144e565b600181019050611467565b5050565b601f8211156114ca5761149b8161136a565b6114a48461137f565b810160208510156114b3578190505b6114c76114bf8561137f565b830182611466565b50505b505050565b600082821c905092915050565b60006114ed600019846008026114cf565b1980831691505092915050565b600061150683836114dc565b9150826002028217905092915050565b61151f82610eb9565b67ffffffffffffffff81111561153857611537610a8c565b5b6115428254611339565b61154d828285611489565b600060209050601f831160018114611580576000841561156e578287015190505b61157885826114fa565b8655506115e0565b601f19841661158e8661136a565b60005b828110156115b657848901518255600182019150602085019450602081019050611591565b868310156115d357848901516115cf601f8916826114dc565b8355505b6001600288020188555050505b505050505050565b7f4e487b7100000000000000000000000000000000000000000000000000000000600052601160045260246000fd5b600061162282610bb7565b91507fffffffffffffffffffffffffffffffffffffffffffffffffffffffffffffffff8203611654576116536115e8565b5b600182019050919050565b600061166a82610bb7565b915061167583610bb7565b925082820390508181111561168d5761168c6115e8565b5b92915050565b600081905092915050565b50565b60006116ae600083611693565b91506116b98261169e565b600082019050919050565b60006116cf826116a1565b9150819050919050565b7f4e487b7100000000000000000000000000000000000000000000000000000000600052603260045260246000fdfea2646970667358221220263bdda8aa80fc6ab6502442030047dcb4906a4a66f60d9a00a574eefd9ea67a64736f6c63430008120033",
  "linkReferences": {},
  "deployedLinkReferences": {}
}